:1000000009C021C02AC01FC01EC01DC01CC01BC00B
:100010001AC019C011241FBECFE9CDBF10E0A0E661
:10002000B0E0E8E5F3E002C005900D92A836B10714
:10003000D9F720E0A8E6B0E001C01D92AF36B207C4
:10004000E1F70CD087C1DCCFEBE2F1E03197F1F7BB
:1000500000C000000197C1F70895189583EA8FBD8D
:1000600082E083BF83E187BB88B3846188BB80E281
:100070008BBF84E085BB16B89CE9892E99249A949D
:1000800024E6E22EF12C38EEC32E33E0D32E00917D
:10009000660010916700412E5524712C612C8091CF
:1000A000680090916900EC01C170DD27D195C19580
:1000B000D109CC27D47B96958795C827D927580195
:1000C000AB2CBB24A694BE0190E080E0A30192017A
:1000D00001D11C012A183B08BE0161707727719578
:1000E000619571096627747BD695C7956C277D2726
:1000F000709369006093680090E080E0A301920132
:10010000E9D0AC014A195B0984E190E0011564E192
:10011000160730F0013098E7190730F08CEE9FEFAA
:1001200090936500809364008091640090916500D5
:10013000080F191F109367000093660080916D00EF
:1001400090916E009C013595279535952795220E47
:10015000331E2091620030916300220E331E3092D4
:1001600063002092620020916B0030916C00B90115
:100170007595679575956795460F571F6091600057
:1001800070916100460F571F5093610040936000CB
:100190006CE926166FEF360624F490926300809285
:1001A000620060916200709163006536710524F011
:1001B000F0926300E09262004C395F4F24F4909219
:1001C000610080926000409160005091610045366E
:1001D000510524F0F0926100E092600040916A00C5
:1001E0004F5F40936A00437099F467EE73E061D00B
:1001F000B60189D070936E0060936D00C90167EEFF
:1002000073E057D0B6017FD070936C0060936B00A1
:10021000809162009091630020916D0030916E009A
:10022000281B390B30936E0020936D0020916B00DA
:1002300030916C004091600050916100241B350B9F
:1002400030936C0020936B00855686BF80916000D0
:10025000855689BDB29929C080E187BBC4988AE0E0
:1002600090E0F2DEB29BFECF8AE090E0EDDE85B753
:10027000877E806185BF8AB780628ABF85B58360CB
:1002800085BDF89485B7806285BF7894889585B7D9
:100290008F7D85BF85B58C7F85BD93E197BBC49A63
:1002A0008AE090E0D1DEB29BFECF89E190E0CCDE27
:1002B000EECE0024552704C0080E591F880F991F41
:1002C000009729F076956795B8F37105B9F7802DF9
:1002D000952F0895EE27FF27AA27BB2708C0A20F56
:1002E000B31FE41FF51F220F331F441F551F9695A0
:1002F00087957795679598F37040A9F7009799F7D8
:10030000BD01CF01089597FB072E16F4009406D087
:1003100077FD08D00BD007FC05D03EF49095819571
:100320009F4F0895709561957F4F0895AA1BBB1B41
:1003300051E107C0AA1FBB1FA617B70710F0A61BE5
:10034000B70B881F991F5A95A9F780959095BC0106
:08035000CD010895F894FFCFE0
:080358003200640014000014DF
:00000001FF
