:1000000009C021C021C01FC01EC01DC01CC01BC014
:100010001AC019C011241FBECFE9CDBF10E0A0E661
:10002000B0E0EAEFF2E002C005900D92A836B10709
:10003000D9F720E0A8E6B0E001C01D92AF36B207C4
:10004000E1F703D058C1DCCF189583EA8FBD82E079
:1000500083BF8BE187BB84E188BB80E28BBF84E0F8
:1000600085BB789416B880E888B981E085BD85B7EE
:10007000877E806185BF7CEE672E77247A94E4E1E9
:100080008E2E912CCCE9DFEF04E610E0F8EEEF2E97
:10009000F3E0FF2EE8EBFBE0ACE4AA2EADE1BA2ED4
:1000A000209166003091670060916800709169004E
:1000B000CB0181709927919581959109AC014427D5
:1000C000547BCB019695879584279527A32FA695DA
:1000D000AC01417055275195419551094427547BF6
:1000E000969587958427952790936900809368005B
:1000F000211544E1340728F4909265008092640051
:1001000008C0213068E7360720F0709265006092E1
:1001100064008091640090916500280F391F30932E
:1001200067002093660080916D0090916E006A2FA9
:1001300070E0AC015595479555954795461B570B73
:100140002091620030916300420F531F509363006F
:1001500040936200C0906B00D0906C009601359582
:10016000279535952795D901A61BB70B20916000DF
:10017000309161002A0F3B1F309361002093600093
:100180004C395F4F24F4D0936300C09362004091D8
:100190006200509163004536510524F010936300CE
:1001A000009362002C393F4F24F4D0936100C09338
:1001B000600020916000309161002536310524F007
:1001C000109361000093600020916A002F5F2093DC
:1001D0006A00237099F467EE73E055D0B70164D0DC
:1001E00070936E0060936D00C60167EE73E04BD0B4
:1001F000B7015AD070936C0060936B0080916200DD
:100200009091630020916D0030916E00281B390B96
:1002100030936E0020936D0020916B0030916C0044
:100220004091600050916100241B350B30936C00AD
:1002300020936B00855686BF80916000855689BDEE
:10024000B29B04C0C5010197F1F72ACF87B38C7F19
:1002500087BBC498CF010197F1F7B29BFECFCF01C6
:100260000197F1F785B7806285BF889585B78F7D47
:1002700085BF87B3836087BBC49ACF010197F1F72D
:10028000B29BFECFDFCF0024552704C0080E591FB4
:10029000880F991F009729F076956795B8F3710537
:1002A000B9F7802D952F089597FB072E16F400942B
:1002B00006D077FD08D00BD007FC05D03EF4909512
:1002C00081959F4F0895709561957F4F0895AA1B62
:1002D000BB1B51E107C0AA1FBB1FA617B70710F031
:1002E000A61BB70B881F991F5A95A9F78095909563
:0A02F000BC01CD010895F894FFCF82
:0802FA0032006400140000143E
:00000001FF
