:1000000009C021C038C01FC01EC01DC01CC01BC0FD
:100010001AC019C011241FBECFE9CDBF10E0A0E661
:10002000B0E0E2E3F3E002C005900D92AA36B1071A
:10003000D9F720E0AAE6B0E001C01D92AF36B207C2
:10004000E1F71AD074C1DCCFBC012091600030917F
:100050006100C9018170992791958195910988273F
:10006000947B369527958227932790936100809300
:10007000600036D10895189583EA8FBD81E083BF73
:100080009BE197BB94E198BB90E29BBF94E095BB4A
:10009000789416B890E898B985BD85B7877E806159
:1000A00085BF212CA8E73A2EB6EF4B2E55245A9443
:1000B000CAE06C2E712CDCE9ED2EFF24FA9414E6D4
:1000C000C12ED12C08EEA02E03E0B02E8091680046
:1000D0009091690081309E4148F080ED97E0B4DF57
:1000E000059720F43092690020926800C091680062
:1000F000D09169008D2F90E0A7DF4E01892C9924C3
:1001000086948C01081919098D2F90E09DDF8819BC
:100110009909C11525E0D20728F470926700609212
:10012000660008C0C1302CE3D20720F0509267006F
:10013000409266002091660030916700C20FD31F85
:10014000D0936900C093680060916D0070916E005B
:100150009B013595279535952795020F131F209103
:10016000640030916500020F131F10936500009327
:10017000640020916B0030916C00A9015595479562
:1001800055954795840F951FE0916200F0916300AB
:10019000AC014E0F5F1F50936300409362000C3917
:1001A0001F4F24F4F0926500E09264008091640097
:1001B000909165008536910524F0D0926500C0923B
:1001C00064004C395F4F24F4F0926300E0926200C7
:1001D00080916200909163008536910524F0D09261
:1001E0006300C092620090916A009F5F90936A00E2
:1001F0009370A1F4CB0167EE73E061D0B50184D0B8
:1002000070936E0060936D00C90167EE73E057D084
:10021000B5017AD070936C0060936B00809164009C
:100220009091650020916D0030916E00281B390B74
:1002300030936E0020936D0020916B0030916C0024
:100240004091620050916300241B350B30936C0089
:1002500020936B00805886BF80916200805889BDD2
:10026000B29B07C083E991E10197F1F700C000005C
:100270002DCF87B38C7F87BBC49887EB9BE001971A
:10028000F1F700C00000B29BFECF87EB9BE0019727
:10029000F1F700C0000085B7806285BF889585B7FB
:1002A0008F7D85BF87B3836087BBC49A87EB9BE054
:1002B0000197F1F700C00000B29BFECFD3CF00241E
:1002C000552704C0080E591F880F991F009729F061
:1002D00076956795B8F37105B9F7802D952F089538
:1002E000AA1BBB1B51E107C0AA1FBB1FA617B7075C
:1002F00010F0A61BB70B881F991F5A95A9F7809578
:100300009095BC01CD01089597FB072E16F400943B
:1003100006D077FD08D0E4DF07FC05D03EF49095C9
:1003200081959F4F0895709561957F4F0895F8943A
:02033000FFCFFD
:0A033200E1AC320064000A0000058F
:00000001FF
